:020000022000DC
:106000000000012079630200616302006363020003
:10601000656302006763020069630200000000001C
:106020000000000000000000000000006B630200A0
:106030006D630200000000006F63020071630200E4
:106040001D86020073630200598A02007363020016
:106050007363020073630200D58802007363020059
:1060600073630200736302007363020073630200D0
:1060700073630200736302007363020073630200C0
:1060800073630200E1700200736302007363020035
:106090007D71020073630200D5B5020073630200D4
:1060A0007363020073630200736302007363020090
:1060B0007363020073630200000000000000000030
:1060C0007363020073630200736302007363020070
:1060D0007363020073630200736302000000000038
:1060E00000000000000000000000000000000000B0
:1060F00000000000000000000000000000000000A0
:10610000000000000000000000000000000000008F
:10611000000000000000000000000000000000007F
:10612000000000000000000000000000000000006F
:10613000000000000000000000000000000000005F
:10614000000000000000000000000000000000004F
:10615000000000000000000000000000000000003F
:10616000000000000000000000000000000000002F
:10617000000000000000000000000000000000001F
:10618000000000000000000000000000000000000F
:1061900000000000000000000000000000000000FF
:1061A00000000000000000000000000000000000EF
:1061B00000000000000000000000000000000000DF
:1061C00000000000000000000000000000000000CF
:1061D00000000000000000000000000000000000BF
:1061E00000000000000000000000000000000000AF
:1061F000000000000000000000000000000000009F
:10620000364937480A1A02D0072291438D4635494C
:1062100035480A1A06D00722914381F309880222E1
:1062200082F3148831483249324A00F045F8324846
:106230003249334A00F040F832483349334A00F0DB
:106240003BF833483349344A00F036F83348344990
:10625000344A00F031F834483449354A00F02CF81B
:1062600034483549354A00F027F835483549002289
:1062700000F02DF834483549002200F028F8344861
:106280003449091A082903DB002202600430016046
:10629000314A90471F482049884205D0026804309F
:1062A00003B4904703BCF7E700208646EC46002085
:1062B00000212A4A9047FEE7884207D0521A05D0AB
:1062C000037801300B700131013AF9D170478842EF
:1062D00002D002700130FAE7704700000000012090
:1062E00000E00020000001200000012064D3020033
:1062F000982A0020F82A0020D8630200D863020000
:10630000E0C3020064D30200982A0020982A0020EB
:10631000D4C40200D4C40200D4C40200D4C4020015
:10632000D4C40200D4C40200D4C40200D4C4020005
:1063300064D30200C4D30200F82A0020F82A002007
:10634000F82A0020A83C0020A83C0020A83C0020FF
:10635000A83C0020A85C0020A1630200519C020020
:10636000FEE7FEE7FEE7FEE7FEE7FEE7FEE7FEE705
:10637000FEE7FEE7704700BF1048804710484FF027
:106380000701884385460F4880470F48016841F45C
:1063900070010160BFF34F8FBFF36F8FFFF730BF06
:1063A0000A480B490B4A884207D0521A05D0037895
:1063B00001300B700131013AF9D170477563020069
:1063C000000001200D80020088ED00E0D4C402002E
:0863D000982A0020982A002001
:1063D800704770477047000007B5044B0093044AA4
:1063E800402300F032F803B05DF804FBFD630200BF
:1063F800F92A00202DE9F84389461446E2B10F4BEB
:106408000F4E0325002743F00108224609EB070138
:10641800002003F0BBFD0744241A48B933785BB168
:106428004FF47A40C047013D02D13570BDE8F8838A
:1064380001233370002CE8D1BDE8F883E0C40200E2
:10644800F82A0020704703F0D5BDF0B595B01C467A
:1064580008460D46164601F0D1FC1A9B0994002403
:106468000D930822234605A9284608960A948DF814
:106478002C400C9401F0E0FC079B0293BDF8183007
:10648800ADF80C30BDF81A30ADF80E309DF8143068
:106498008DF8114003F00302012A1DD1BDF8144004
:1064A800059EC3F3C203C4F383148DF81030A20011
:1064B80008230EA9284601F0BFFCC6F3952608ABB1
:1064C8000093224602AB0EA9304600F061FB284635
:1064D80001F098FC15B0F0BD022AF8D1BDF81640BD
:1064E800C3F3C203C4F389148DF810300827082CAD
:1064F800264628BF08263B4632460EA9284601F004
:106508009BFCA41B08AB02AA31460EA8374400F036
:10651800A3FB002CEBD1DAE708B5FFF794FF0421C1
:10652800034800F0A3FA034B01225A7108BD00BFCB
:10653800C4C40200982A0020037813F0040216D07D
:1065480003F00303012B03D0022B09D0012070476D
:106558000A6800880232C0F3831002440A60F5E733
:106568000B684288023303EB92130B60EEE7104688
:10657800704700002DE9F04F89B00646851C08A831
:10658800494C019200230F4600F8113D01F0F0F844
:1065980023683B606268A3681344226801339B1A2E
:1065A80004F21C4704F5836A04F21448AB421AD378
:1065B800019A0023002A6FD0012262F3010343F0FD
:1065C800040366F389132168A2689DF80F000A4046
:1065D80003320D4444F82230256001F0EDF8012023
:1065E80009B0BDE8F08F0121384601F04AF950465C
:1065F80001F061F9404601F05EF90DF1200960688B
:10660800D4F808B049F8100D00EA0B00033004EB89
:1066180080004946FFF790FF049BB8B90BEA0302D4
:1066280004EB8202D16805919A1C013303EA0B0B33
:1066380004EB8B0E0492DEF80C30069301F0030392
:10664800012B21D0022B04D083460CE00BEA030077
:10665800DCE7BDF81630BDF81AB0C3F3891303336D
:1066680002EB93030493404601F028F908B1049B18
:1066780063605946384601F004F96268A368134418
:10668800226801339B1A91E7BDF81430BDF81AB09F
:10669800C3F383131344E5E7022262F3010343F0D3
:1066A800040366F39F538EE70C2C00200B4B0C4819
:1066B800FF2210B59A600022C3F818241A605A60A5
:1066C800C3F8142483F8202401F04FFB044610B9C2
:1066D800044801F0FBFB204610BD00BF0C2C002035
:1066E80048C4020004C5020030B50A4C71B10A4A18
:1066F8000A49121BD20800239A4201D1002030BD5A
:1067080031F82350854202D00133F5E7034654F8A7
:10671800330030BD5CC40200C4C40200982A0020C3
:10672800094B013903EBC000032909D8DFE801F060
:106738000A020406042070470079704740797047C0
:1067480000207047022070475CC40200034B586861
:106758001B68C31A58425841704700BF0C2C0020D0
:106768002DE9F04387B0FFF7F1FF0646002840F017
:10677800F080804DC5F81804BFF34F8F6868AC6887
:1067880006AF47F8100D2040033005EB800039466E
:10679800FFF7D2FE029B18B1D5F81824002A5CD066
:1067A80004EA0302991C013305EB8202234005EB3E
:1067B8008303D268DB68049302F00303022B03927D
:1067C80002915CD1BDF80E306B48C3F38918464678
:1067D800502EA8BF502666F38F1306F10801ADF8B6
:1067E8000E3001F0DAFA0746002800F0BA8001F00E
:1067F80005FB082203A90023384601F012FB029981
:1068080024EA010201329200964231D9002A00F0AE
:10681800A28021405FFA82F90331A6EB0906574CA2
:1068280005EB8101F6B208234A46384601F0F9FA29
:1068380034B109F1080332462146384601F0F1FA2D
:10684800029B08F1030803EB98030293D5F8183468
:10685800002B48D1D5F8104454E02A689A4204D84D
:106868006A60304607B0BDE8F08304EA03008BE7AE
:106878000C40E11C0823324605EB8101DDE7012BC2
:106888006FD1BDF80C303C48C3F38311062928BFEB
:10689800062161F3891302318900ADF80C3001F04B
:1068A8007CFA074600285CD001F0A8FA00230822E9
:1068B80003A9384601F0B5FA0026BDF80C20C2F34A
:1068C8008312B31C96424FEA8303BFD202994A1C33
:1068D80021400331029205EB81010422384601F080
:1068E800A0FA0136E9E7384601F08CFAFFF72EFFE7
:1068F80080F00100C6B2B4E7E3685B79002B33D1BE
:10690800E3681C68002CF7D1384601F07BFA06A82A
:1069180000F8114D00F02CFFD5F818340BB9029B84
:106928006B609DF8070000F047FFDFE7236820460B
:106938009B689847E3681C68002CF7D1104B1148F6
:106948001149C01AC008000440F0020000F076F8AF
:10695800CCE7002685E75FFA86F91446074916460C
:1069680061E7D5F81044E7E7236839461B682046F5
:106978009847C5E70C2C002048C40200182C0020BA
:106988005CC4020084C4020010C502002DE9F74F60
:10699800284C80460F46924601A9012218469B467C
:1069A800A568FFF7E7FD88B3DDF80490002609F134
:1069B80002025E4534D100211F4800F02FFF80F30A
:1069C800100009F101022A4004EB8202000405EAE2
:1069D8000903033340EA1840D06014F8232068F311
:1069E800C50204F8232034F8232066F3891224F81A
:1069F800232054F82320012167F39F2244F8232001
:106A080061F301026FF3820204F8232094F8203422
:106A18001BB1FFF7A5FE0028FBD103B0BDE8F08F3E
:106A280002EA050104EB81015AF82630CB600136F1
:106A38000132BEE70C2C00202830002000231A4623
:106A4800FFF7A4BF13B502AC012344F8042D224676
:106A5800FFF79CFF02B010BD07B58DE80C000223BC
:106A68006A46FFF793FF03B05DF804FB30B50F49A2
:106A7800D1F81024002314463CB9C468237152B9D4
:106A8800C1F810042260184630BDE46825799D429B
:106A980006D02468F0E7D268116821601060F2E738
:106AA80001330A2BE7D14FF0FF33ECE70C2C002021
:106AB800094A38B50123D2F8104482F820341D461B
:106AC80004B938BDE3685D71236820465B68984760
:106AD800E3681C68F4E700BF0C2C0020C38873B57A
:106AE80004460D4633B1144A00921449144A284604
:106AF80000F045FF217A05291CD0637A4BB1A088A4
:106B0800FFF70EFE0F4B104953F82020284600F0DF
:106B180036FF227A0D4BA08853F822600021FFF738
:106B2800E3FD0B4903463246284602B0BDE87040F3
:106B380000F025BF02B070BD7BC5020063C502002E
:106B48005BC5020028C5020080C5020090C502008E
:106B580083C50200037A052B10B50C460FD0437A83
:106B680023B1084A0849204600F009FF0749204692
:106B780000F005FF2046BDE8104000F0F5BE002AF1
:106B8800F8D0F3E77BC5020080C502005DCC0200A7
:106B98002DE9F04385B01F460C9D002306460C46A0
:106BA800904695F80C902B7329463846FFF796FFC8
:106BB800B8F1060F09D8DFE808F00412181F2833C7
:106BC80040003146284600F0DAFE002229463846C1
:106BD800FFF7C0FF85F80C9005B0BDE8F083226888
:106BE8003146284600F0CBFEEFE794E80C0031462A
:106BF800284600F0C4FEE8E7A3680093314694E80D
:106C08000C00284600F0BBFEDFE7E3680193A368A9
:106C18000093314694E80C00284600F0B0FED4E713
:106C280023690293E3680193A3680093314694E8CB
:106C38000C00284600F0A3FEC7E7636903932369A5
:106C48000293E3680193A3680093314694E80C002B
:106C5800284600F094FEB8E708292DE9F84F804649
:106C68000E4617461C4636D8002593F80C901D731F
:106C780019461046FFF732FFDFF87CA0DFF87CB03A
:106C8800AE422AD918F805205946204600F077FE6A
:106C98000135082DF4D11649DFF864B0204600F01C
:106CA8006EFE0025AE421DD918F805A0504604F026
:106CB80009FF002814BF52462E225946204600F0EC
:106CC8005EFE0135082DEDD1012221463846FFF739
:106CD80041FF84F80C90BDE8F88F5146204600F03B
:106CE8004EFED5E70349204600F049FEE9E700BF1C
:106CF80056C5020054C5020052C502004CC5020028
:106D080058C502002DE9F84FDFF8A4B00025254B3F
:106D18001B78ECB2A34201D8BDE8F88F224BD3F818
:106D2800008018F8349001204A46002104F0C0FD84
:106D3800DBE9002300EA020601EA03073E4308EB09
:106D4800C40A2CD023EA010122EA0000CBE90001A1
:106D5800484601F0B1FD18F834408146224601202A
:106D6800002104F0A5FD114BD3E900672246064037
:106D78000F404846002104F09BFD8F4208BF864221
:106D88000DD1DAF8043053B19AF801104A1E514275
:106D98005141A1EB09004142414120469847013544
:106DA800B5E700BFC830002000310020F0300020D7
:106DB800F83000202DE9F84307461F4800F0B6FBDD
:106DC800002837D13A460120002104F071FD1B4B01
:106DD80004460D46D3E9000104EA000805EA010962
:106DE80058EA09021E461FD1384601F065FD144BCA
:106DF80098B1D3E9000120432943C3E90001D6E94A
:106E080000231D430F4B0C4819681443C6E900457D
:106E18000022BDE8F84300F043BBD3E9000120EAB3
:106E2800040021EA0501E8E720EA040421EA05054F
:106E3800C3E90045BDE8F883D0300020F8300020D1
:106E4800F0300020CC300020042AF7B505460C4667
:106E5800164638D901F06CFCC8B11C4B1C491D60A2
:106E68001C4B1D4F1C701D4B00221E600023C1E9E6
:106E780000231B49C1E90023013CE4B20026FF2C92
:106E88000BD1184A1848002100F0F8FA03E001F085
:106E980017FC0028E1D003B0F0BD23B205EBC30214
:106EA800032192788DF804108DF8052001A93A463F
:106EB80015F833008DF8066001F044FC013CE4B29B
:106EC8000028DCD0E7E70720E5E700BF0031002015
:106ED800F0300020C8300020BD6D0200CC3000200A
:106EE800F83000200D6D0200F0C5020070B5084DA5
:106EF800084E00242B789C4201D3002070BD3368D3
:106F0800012113F8340001F091FC0134F2E700BFCD
:106F1800C8300020003100201FB50021039001AACD
:106F280044F201000191029100F004F805B05DF807
:106F380004FB000010B572B6FFF7BAFDFFF710FCAE
:106F48000028FBD1104B114C1149E41AE408240421
:106F580044F00100FFF772FD0E4B1B68DB0700D5FC
:106F680000BE0D4944F00200FFF768FDBFF34F8FE4
:106F78000A490B4BCA6802F4E0621343CB60BFF3C3
:106F88004F8F00BFFDE700BF5CC4020084C402004D
:106F9800F4C50200F0ED00E000C6020000ED00E0DC
:106FA8000400FA0549B152B1531E1A4007D1826054
:106FB80001608380C260104670470E207047092028
:106FC800704710B58468C2688388121B934208D33F
:106FD800C26813400268D154C3680133C3600020FB
:106FE80010BD042010BD8268C3689A420AD0826826
:106FF800838813400268D35C0B7083680133836015
:107008000020704705207047094A5378917801336A
:10701800DBB2994208BF0023117899421FBF037061
:107028005078182303FB002014BF04300020704759
:107038000431002073B5054602A8002400F8014D6C
:107048000E4600F095FB0DF10600FFF7DDFF90B14D
:1070580006700A4B9DF8062045605A709DF8070097
:1070680000F0AAFB24B9064B4FF48012C3F80021A4
:10707800204602B070BD0424F0E700BF04310020B0
:1070880000E100E0024B4FF43C6043F00103184775
:1070980010C6020038B50C4B0C4C4FF40032C3F844
:1070A800802001254FF48033C4F84833C4F80833EE
:1070B8006560FFF7E7FF064BA56000241C60FFF73B
:1070C800E1FF044B1C7038BD00E100E000100140F6
:1070D8002032002011320020F8B51F4B1F491B68D1
:1070E8000025C1F84051C1F84451C1F84851C1F8D0
:1070F8004C51C1F80051C1F804514BB3D1F80445C3
:1071080017490968641A24F07F442F461A68A24276
:1071180009D8A41A15441A7CDE691AB11F745A6971
:1071280098699047AEB90F4B0F4A197813788B427C
:1071380005D10133DBB2022B08BF0023137012788C
:107148000A4B43F822500A4B4FF48012C3F800212F
:10715800F8BD3346DAE700BF2432002000100140B2
:10716800203200201C3200201D3200201432002062
:1071780000E100E02DE9F74F9C4A9D491378097812
:107188009C4E994257D00133DBB2022B08BF002333
:10719800137099491278994B0F6853F822003B18DD
:1071A80023F07F4300220B60336815461446964649
:1071B80013B942B1336006E01968814229D902B196
:1071C8003360091A19604FF0010833688C4FDFF8F3
:1071D8003CB200934FF00009002D61D02C46ED69B8
:1071E800854B60681A68831A23F07F41854B994262
:1071F800A36800F2B7800B44236000236360A36098
:10720800E361336801222274002B40F0B3803460BC
:10721800E2E7401A0C44D968C3F800E0D3F81CC070
:1072280031B13A1922F07F42DD615A6099601D46FA
:1072380063460122BCE70025A846C6E7531CB97877
:10724800DBB299423B704FF0180303FB027208BF90
:107258003D7013799468022B1BD0032B11D0012B9E
:107268001ED1217CE1B9D36863601369A3605369B7
:10727800E3609369A361644B1B78002BB0D0616015
:10728800AEE7002335681A46002D67D143B1356053
:1072980006E0326813469246002B5AD10023237425
:1072A8003A787B789342C9D1B9F1000F06D1336897
:1072B800009A9A4202D1B8F1000F44D03368002BEB
:1072C80073D0D3F800A0514D4B4BD5F804751C680A
:1072D800DFF840813E1B98F8003026F07F460336E1
:1072E8009BB94FF48033C5F84433C5F80433484B91
:1072F8004FF400324FF00109C3F880211A60C5F835
:107308000090FFF7BFFE88F80090B2452CBF5444A8
:10731800A41924F07F44C5F84045D5F80435DB1B93
:1073280023F07F43E41B033324F07F44A3420AD9AC
:10733800D5F80435C5F84035FFF7A4FE344B4FF4B3
:107348000032C3F80021304B00221A7003B0BDE8A8
:10735800F08F9C422CD09A46DB699DE72A74012362
:10736800ED6991E7121A22F07F429A4234BF9B1AC4
:10737800002341E7226819688A420BD88A1A1A60E2
:10738800E36144E7521AD969184661B92260E1619C
:10739800DC6121E7184619689142F3D3891A19600C
:1073A80019460346F2E70B46F5E7FFF773FECAE70F
:1073B80054450DD1D369336053B90F480192012167
:1073C800CBF808100360104B1970FFF75BFE019AA9
:1073D800E1692368CAF81C1011B1086803440B60FE
:1073E80033689A4218BF4FF0010957E71C32002052
:1073F8001D320020243200202032002014320020C8
:1074080004310020FEFF7F001032002000100140F0
:1074180000E100E01132002008B5FFF73BFE114BF8
:1074280000200B2218709A7058700F4B18600F4B81
:1074380018700F4B18700F4B4FF48012C021C3F80F
:10744800802183F814131A6002F18042A2F56F229A
:10745800C2F8080583F81113074BD2F804251A60FF
:1074680008BD00BF04310020243200201C32002057
:107478001D32002000E100E020320020074B9B78FD
:107488004BB132B128B10368187C20B959745A61DC
:107498007047072070470820704700BF043100205C
:1074A8002DE9F7431E4FBB7805460E469046ABB311
:1074B800A0B3042930D9436983B3437C02A80024CC
:1074C800012B00F8014D0CBF8946A14600F050F988
:1074D8000DF10600FFF798FDE0B101230370114B91
:1074E8004560D3F8043583609DF80630C660C0F85F
:1074F8001090C0F814807B709DF8070000F05CF9CC
:1075080024B9094B4FF48012C3F80021204603B078
:10751800BDE8F0830424EFE70724F7E70824F5E73C
:10752800043100200010014000E100E0064A927892
:107538003AB130B1426922B1002202740221FFF748
:1075480079BD0820704700BF043100200648074A6B
:1075580003780749D35C012213B1043001F0D2BE8D
:107568000C3001F0A3BC00BFA02A00208C32002000
:10757800503200200648074A03780749D35C0122A5
:1075880013B1043001F06CBE0C3001F037BC00BF01
:10759800A02A00208C3200205132002037B505780F
:1075A800012D04D035D3022D28D003B030BD436857
:1075B8001F4C19782046FFF704FD78B11D4B019048
:1075C8008DF800501B6868469847A168E368A28850
:1075D8005B1A9A420ED3FFF7B9FFE6E7A268E368A1
:1075E8009A42F2D002AB134A03F8080D1268184603
:1075F8009047EAE7104B01221A70D6E7C368019357
:107608008DF80050FFF7A2FF0A4B1B6868469847A1
:10761800CBE70A490A48FFF7E6FC10B9FFF7AAFFCB
:10762800C3E702A8032300F8083D024B1B68EEE7F6
:107638002C320020283200203C3200205132002019
:1076480040320020F0B51F46234B89B006461A6029
:107658000C4600293DD08A8820480968FFF7A2FC1B
:10766800002834D1A289A1681D48FFF79BFC002897
:107678002DD11C4D0FCD6C460FC495E80F0084E842
:107688000F0073690693337C174A18488DF81C70ED
:10769800003318BF01238DF81430737C002B14BFFE
:1076A8000E2300238DF81530F3680293B368039313
:1076B8003368019369467368009300F035FF30B969
:1076C8000B4B18703368013301D0FFF73FFF09B047
:1076D800F0BD0720FBE700BF283200202C32002035
:1076E8004032002018C60200A5750200A02A00201A
:1076F8003C32002070B5084C014608482678FFF750
:1077080072FC054636B100232370FFF71FFF08B14E
:10771800FFF702FC284670BD3C3200202C320020C6
:1077280010B501460E48FFF74CFC0446A8B90D48B1
:107738000D4A0378D35C63B1043001F0D7FD60B91A
:107748000A490748FFF74FFC38B9BDE81040FFF772
:1077580011BF0C3001F09EFBF1E7204610BD00BFC1
:1077680040320020A02A00208C3200205132002014
:1077780070B5EFF3108672B60C4A946801239CB971
:1077880093600B4B0B4DD3F8801029401160C3F860
:107798008050D3F8841051604FF0FF32C3F8842032
:1077A800047006B962B670BD0370FAE7543200205F
:1077B80000E100E0FC06FFBD084B9A6810B55AB11D
:1077C80050B9EFF3108272B605491C680C605C680A
:1077D8004C60986002B962B610BD00BF54320020F8
:1077E80000E100E001F01F024B090121914000EB8C
:1077F800830000F01FB801F01F0301229A404B09D3
:1078080000EB8300D14300F02FB84B0901F01F01B2
:1078180050F82300C84000F00100704700B550E858
:10782800002F0B4640E8003E9EF0000FF7D11046AF
:107838005DF804FB00B550E8003F43EA010240E868
:10784800002E9EF0000FF6D110465DF804FB00B53F
:1078580050E8002F02EA010340E8003E9EF0000FC6
:10786800F6D110465DF804FB00B550E8003F03EA86
:10787800010240E8002E9EF0000FF6D110465DF898
:1078880004FB00B550E8003F03EB010240E8002E7E
:107898009EF0000FF6D110465DF804FB00B550E8E5
:1078A800003FA3EB010240E8002E9EF0000FF6D146
:1078B80010465DF804FB0121FFF7BCBF0021FFF76C
:1078C800C6BF10B590B14268836801689B1ADBB2E5
:1078D8000A60013BDBB2FF2B026802D10020107165
:1078E80010BD11684C1C14600B70F2E70E2010BD1F
:1078F80037B5054602A8002400F8014DFFF738FF08
:107908002A686B68116899420ED9481E106011F8F0
:10791800014CEB68298A01FB0434AB6811791B1A06
:10792800DBB2994238BF13719DF80700FFF744FF97
:10793800204603B030BD37B5054602A8002300F83D
:10794800013D0C46FFF714FF2A681368591C1160A3
:10795800E968641A298AB4FBF1F41C709DF80700E1
:10796800FFF72AFF03B030BD826810B504462AB17C
:1079780043690168006998470023A36010BD0EB4ED
:1079880003B5039929B102AA04AB42F8043D00F0FB
:107998006DF802B05DF804EB03B07047826830B44C
:1079A8000468551C8560A154826843689A4202D3D2
:1079B80030BCFFF7D9BF30BC704700002DE9F84F45
:1079C8000A9C99460B9B1746824688460A4601261A
:1079D800BA420FD24E4538BF4E4613F0010B01D1C3
:1079E80064B900240125B9F1010F1AD909F1FF3949
:1079F8007D43F8E7B2FBF7F20136E9E79B070ED5BE
:107A0800B9F1000F0CBF30252025A642EAD2013C6F
:107A180029465046FFF7C2FF002CF6D1E1E72025A2
:107A2800F3E7B8FBF5F39F42E2D9DFF83C90B8FBE7
:107A3800F5F3504619F8031005FB1388FFF7AEFF5E
:107A4800B5FBF7F5002DF2D1BBF1000F0AD03CB918
:107A5800BDE8F88F013C20215046FFF79FFF0CB18D
:107A6800A642F7D3BDE8F88F38C602002DE9F74FD4
:107A7800054617460C46002900F0358114F8011B0D
:107A880049B92B7B002B00F02E81284603B0BDE8B6
:107A9800F04FFFF769BF252940F0218123460026D2
:107AA800194611F8012B2D2A24D0302A26D02B2A4A
:107AB80027D000242A2A994603F1010124D13B68E2
:107AC8001A1D1B683A601C44894699F800302E2B11
:107AD80025D109F101014FF00008894611F8012B61
:107AE800A2F1300009281CD80A2303FB0823A3F1BC
:107AF8003008F2E746F001060B46D1E746F00206E9
:107B0800FAE746F00406F7E71A780B46A2F13001C7
:107B18000929DAD80A2101FB0424303CCAE74FF0CE
:107B2800000899F8001001F0FB02682A02D119F840
:107B3800011FF8E769290FD04BD8582965D007D815
:107B480025296ED009F101042378002B96D198E7F6
:107B5800632962D06429F5D13A68D2F800A0111DD2
:107B68008AEAEA723960A2EBEA724FF0010B092A3D
:107B78005BDCC34538BFC3462CB1BAF1000F01DB4B
:107B8800710700D5013CB20702D5B8F1000F04D047
:107B9800F30702D4002C4ED10024BAF1000F52DAB8
:107BA800CAF1000A2D212846FFF7F8FE06F0030265
:107BB800022A05D1B8F1000F02D1002C47D10024C8
:107BC8008DE8500043460A2251462846FFF7F6FE44
:107BD800B8E773294CD014D87029B3D13B681A1D63
:107BE8003A60302128461C68FFF7D8FE78212846DD
:107BF800FFF7D4FE002301930823009310222146A7
:107C0800E3E775292BD078299CD139680A1D3A6099
:107C180043468DE85000102228E03B681A1D197869
:107C28003A602846FFF7BAFE8CE70A230BF1010BEE
:107C380092FBF3F29BE7A345AFD220212846013CF3
:107C4800FFF7ACFEA6E77007B0D52B21ABE7A3453D
:107C5800B6D230212846013CFFF7A0FEADE73968CF
:107C68000A1D3A608DE8500043460A220968ACE7CD
:107C78003B681A1D3A60F107D3F800A012D55646A2
:107C8800A6EB0A0B16F8011B41B95C457FF65AAF03
:107C980020212846013CFFF781FEF6E72846FFF73A
:107CA8007DFEEDE7BAF1000F11D0504603F0D6FF84
:107CB8000646B44200D964B90AF1FF3A1AF8011F1E
:107CC80000293FF43FAF2846FFF768FEF6E756461F
:107CD800EFE720212846013CFFF760FEE9E7284648
:107CE800FFF75CFE30E703B0BDE8F08F2DE9F04701
:107CF800B0F806804479D2F800909DF8207008FB0F
:107D080004F4043C03EB090E744538BFA4EB0309E3
:107D18000E46191DC2F80090B1FBF8F5044608FBA1
:107D280015114DB9A8EB010ACA4528BFCA46B9F1D1
:107D3800000F04D1BDE8F0872468013DF1E7043164
:107D48007019631852466FB11946A9EB0A0903F076
:107D580005FFC84555442468C2464FF0000128BFB6
:107D6800CA46E4E701461846EFE7FFF7AABDF8B5AB
:107D780046790446721E00239342246804D30146C0
:107D88000025B54202D3F8BD0133F5E70F68204658
:107D9800FFF7D1FD01353946F3E72DE9F843078AA6
:107DA800CD1C8046FFF7A4FD043F3D440446B5FBC7
:107DB800F7F5002650B10123EDB206714371C78073
:107DC800013DC0F800808146AE4202D32046BDE89E
:107DD800F8834046FFF78CFD074648B163790133C5
:107DE80063710136C9F80000C0F800808146EBE7EE
:107DF8002046FFF7BCFF3846BDE8F8830121043070
:107E0800FFF73FBD10B5012104460430FFF746FDDA
:107E180010F0FF0F04D12046BDE81040FFF7A7BFC0
:107E280010BD1FB504AC44F8042D00220092224670
:107E3800FFF75CFF04B010BD1FB504AC44F8042D77
:107E4800012200922246FFF751FF04B010BD41DF26
:107E580070470000064B10B500241C70054B1C60D1
:107E6800BFF35F8F0449054800F039F8204610BD7C
:107E7800683200206C32002048C6020060320020C0
:107E880007B502A8002300F8013DFFF771FCF1EEE9
:107E9800103A23F09F03E1EE103ABFF35F8F0A4BCD
:107EA8004022C3F884219DF80700FFF785FC03F002
:107EB80073FB20B1FFF7CBFF03B05DF804FB20BFD5
:107EC80040BF20BFF8E700BF00E100E08368002260
:107ED8005A609A601A615A61DA601A6070470B68D2
:107EE8004A684360934208BF0023016008BF4360AB
:107EF8007047436843B10268916852680B449342E3
:107F0800436004BF00234360704700000D4930B54B
:107F1800A1F594720225914201D8002030BD8B1A38
:107F2800DB1093FBF5F302EBC30452F833308342C2
:107F380005D802D204F10802EDE7606830BD214699
:107F4800E9E700BF98C7020008B5FFF7DFFF024B5B
:107F5800002808BF184608BD5DC6020010B50446D3
:107F6800C0B2FFF7DDFB204610BD0000BFF34F8F06
:107F78000549064BCA6802F4E0621343CB60BFF3BD
:107F88004F8F00BFFDE700BF00ED00E00400FA05D9
:107F9800094B1B78062B0CD1084B1B681A0708D114
:107FA800074B186800F0F000A0F130035842584120
:107FB80070470020704700BFE00F00F0E40F00F0AA
:107FC800E80F00F00C4B1B78062B10D10B4B1B68ED
:107FD8001A070CD10A4B186800F0F003302B08D0B0
:107FE80000F0E000A0F140035842584170470020DB
:107FF80070470120704700BFE00F00F0E40F00F069
:10800800E80F00F008B5FFF7DDFF28B18A4B8B4A6F
:108018001B68C3F304231360FFF7BAFF10B1884B42
:10802800884A1A60FFF7CEFF28B1874B874A1B683A
:10803800C3F342331360FFF7ABFF20B1844AD36820
:1080480023F08073D360FFF7BDFF40B14FF080434A
:108058000022C3F80C21C3F81021C3F83825FFF714
:1080680097FF10B17B4B03221A60FFF791FF40B1D5
:10807800794B05221A6001229A6700229A603F22F2
:108088005A60764B1B78062B09D1754B1B6818076D
:1080980005D1744B1B6803F0F003502B7ED0FFF71B
:1080A80091FF28B1704B714A1B6803F04F031360AE
:1080B800FFF788FF48B14FF08043D3F80024D10779
:1080C80044BF6FF00102C3F80024694B1B68062BFC
:1080D80004D1684B1B68062B00F0A880664AD2F8CA
:1080E800883043F47003C2F88830BFF34F8FBFF372
:1080F8006F8F4FF01023D3F80C22D2071ED55F4B99
:108108000122C3F80425D3F80024002AFBD04FF03D
:108118001022D2F80C3223F00103C2F80C32574B6C
:108128001A46D3F800140029FBD00021C3F804151F
:10813800D2F80034002BFBD0FFF718FFD3F8002249
:10814800002A03DBD3F80432002B23DA4B4B01223D
:10815800C3F80425D3F80024002AFBD04FF01022DE
:108168001521C2F80012D3F80024002AFBD04FF0E2
:1081780010231522C3F80422404B1A46D3F80014E2
:108188000029FBD00021C3F80415D2F80034002BD5
:10819800FBD0D1E73A4B3B4A1A6008BD4FF08052FA
:1081A800394BD2F80414C3F82015D2F80814C3F8D0
:1081B8002415D2F80C14C3F82815D2F81014C3F8F3
:1081C8002C15D2F81414C3F83015D2F81814C3F8C3
:1081D8003415D2F81C14C3F84015D2F82014C3F88B
:1081E8004415D2F82414C3F84815D2F82814C3F853
:1081F8004C15D2F82C14C3F85015D2F83014C3F823
:108208005415D2F83414C3F86015D2F83814C3F8EA
:108218006415D2F83C14C3F86815D2F84014C3F8B2
:108228006C15D2F84424C3F8702538E7174A136848
:1082380043F48063136051E7240300104035014084
:1082480074C007400DF0ADBA440200103C05004070
:10825800F0ED00E0A005004010560040E00F00F0EF
:10826800E40F00F0E80F00F058020010E40E0040A0
:10827800300100103401001000ED00E000E0014082
:10828800B42A00200090D00300C000403C170040F2
:108298004FF0A043D3F804056FEA105000F0010036
:1082A80070474FF0A0434FF48012C3F80C25704775
:1082B8004FF0A0434FF48012C3F8082570474FF0E1
:1082C800A0434FF48012C3F8082570474FF0A0432D
:1082D8004FF48012C3F80C2570474FF0A042D2F833
:1082E8000435D94301F4801103F48013C2F808154A
:1082F800C2F80C3570474FF0A043D3F810056FEA69
:10830800503000F0010070470D3818BF4FF0FF30B3
:108318007047000070B5094E00234FF0A0410325B7
:1083280001209A5D013302F5E074412B00FA02F254
:1083380041F82450C1F80C25F3D170BD52CB02008E
:108348001F2809D801234FF0A042834011B1C2F879
:1083580008357047C2F80C3570470121FFF7F0BFA8
:108368000021FFF7EDBF000040289ABF024B185CC0
:108378004FF0FF30704700BF52CB0200C20708B56C
:1083880006D54FF0A0430322C3F85027FFF797FF05
:10839800830742BF4FF0A0430C22C3F83427BDE83F
:1083A8000840FFF7B7BF000038B5084C04F10803D0
:1083B8000546002818BF1C4623682BB11A6822609E
:1083C8005B6828469847F7E738BD00BF7832002039
:1083D80020B9054B01225A70FFF7E6BF012802D1E8
:1083E800014A9070F8E770477032002020B9034BBB
:1083F80001225A70FFF7D8BF704700BF70320020C3
:1084080038B50B4C237883B90A486360A3602361AD
:10841800E36000F0D1F8054603F0BEF808B900F0B3
:10842800D9F801232370284638BD8525FBE700BF0E
:1084380070320020D983020037B502A80023094C06
:1084480000F8013DFFF794F9E368013BE360E56854
:1084580015B900F0D3F8A5709DF80700FFF7ACF93F
:1084680003B030BD70320020012813B509D003D302
:1084780003281BD002B010BD0F4B0122C3F8802087
:10848800F8E702A800230D4C00F8013DFFF770F94A
:1084980023780BB9FFF7B4FFE3689DF807000133B1
:1084A800E3600123A370FFF787F9E3E700F092F890
:1084B800FFF7C2FFDEE700BF00E100E070320020F6
:1084C8001FB503788DF8003043680193037A8DF85F
:1084D8000830C3680393054A054B684653F82130B2
:1084E80052F82110984705B05DF804FB843200204B
:1084F800883200201FB503788DF800304368019357
:1085080083688DF80830C3680393054A054B6846AD
:1085180053F8213052F82110984705B05DF804FB54
:108528008432002088320020F0B5194B067891F883
:108538001DC043F82620174B96460A6943F82620A3
:10854800154B03F806C00C4607460FCC89B06D469C
:108558000FC594E80F0085E80F000496BCF1000FE2
:108568000AD0BEF1000F0D4A694608BF0022381D27
:1085780000F0ACFD09B0F0BDBEF1000F084A694635
:1085880008BF002207F10C0000F076FBF2E700BFFD
:1085980088320020843200208C320020C9840200F6
:1085A800FD84020000F180400023036082B003686C
:1085B8000193019B02B07047054A13792BB9012139
:1085C800106011715371184670478520704700BFBD
:1085D80090320020084B1A68D20706D4C02283F8CC
:1085E80000230122C3F880211A604FF08043012242
:1085F800C3F81825704700BF00E100E0044B0122D2
:108608001A604FF08042D2F81834DB03FBD470476D
:108618000C000040124B1B6810B573B14FF480700A
:10862800FFF7C0FF4FF080430122C3F808230D4B2A
:10863800587910B95A711B6898470B4B1B6873B16E
:108648004FF48270FFF7AEFF4FF080430222C3F869
:108658000823044B01201B68BDE81040184710BDD3
:1086680000010040903200200401004000F18040E9
:1086780000F5C040002382B0036003680193019BAA
:1086880002B07047800000F1A040D0F8003723F412
:108698004033C0F80037D0F8003743EA0141C0F84A
:1086A80000177047054B4FF0FF32072843F820208A
:1086B80084BF1B1883F84820704700BF98320020F9
:1086C80010B5174C94F8583043BBFF21E21801331A
:1086D800202B82F83010F9D10021C8B2FFF7E2FF51
:1086E80001310C29F9D1002104220E4803F060FA67
:1086F8000D4BC02283F806234022C3F880214FF493
:10870800BE701A60FFF7B2FF084B4FF00042C3F883
:108718000423012384F85830002010BD082010BD20
:1087280098320020EC32002000E100E000600040B8
:10873800034B93F85800003018BF0120704700BF62
:1087480098320020F0B5374D2B1893F93030002BB4
:1087580065DA8E78C6F34006002E0BBF0823002387
:108768000C240824A34201D10420F0BD55F823703D
:10877800013740D12F185CB287F8304045F82320E4
:1087880016B92B4483F848008B785A0713D4DE07B0
:1087980033D5830003F1A043D3F8002722F0020267
:1087A800C3F80027204EC20800F007070123BB408A
:1087B800B75C3B43B3548B780A7813F0020325D097
:1087C800A30003F1804303F5C0430002D3F810155A
:1087D80021F4473121F44071C3F810151204D3F87D
:1087E800101500F4F85002F4403210430843C3F85F
:1087F80010050020F0BD0133B4E74A7800F5E073B6
:108808004FF0A046920046F82320CBE7083C2C44C2
:1088180094F8500040EA821284F85020E9E70820D2
:10882800F0BD00BF98320020EC32002038B5204C53
:10883800251895F93020072A18DD224492F8483087
:108848009B09032B0DD14FF0A043D3F81035C3403B
:1088580013F0010F0CBF02210321BDE83840FFF7D8
:1088680011BF012B14BF03210221F6E7D3B2072B56
:108878001CD8930003F1804303F5C043D3F81005D7
:1088880040F00100C3F8100502F14000800080B2FA
:10889800FFF7ECFE51B195F9303054F823302BB185
:1088A800012303FA02F2034BC3F8042338BD00BFC7
:1088B80098320020006000404FF0A043D3F81035F4
:1088C80023FA00F000F00100704700002DE9FF478F
:1088D80000245A4A5A4E5B4D01940121A2F5C0402A
:1088E80052F8043B012B80B206D1D6F804330B4270
:1088F80002D0FFF7BBFE0C43AA424FEA4101EDD17B
:10890800514B1B68012B0AD14FF4BE70FFF7AEFE26
:108918004FF0A04344F00044D3F81035019314F00D
:10892800FF0F38D1002C80F2858000230293DFF8F6
:108938001C914FF0FF33039301260024A0464FF00B
:10894800A04709EB080393F95020531C61D0D2B219
:1089580022F0C005E90804A8084402F0070310F84B
:1089680004EC06FA03F31EEA030F52D009EB050ED6
:1089780092099EF930E059F82EA0BAF1000F26D1DD
:10898800032A46D10DF1080C1CF801E04EEA030E4B
:108998000CF801E01DE02D4F01260025344210D0CF
:1089A800AB0003F1804303F5C043D3F81005D3F8B7
:1089B800101557F8253023B1C1F30141C0F3042045
:1089C80098470135082D4FEA4606E7D1AAE7032A5A
:1089D800D8D005F5E07110F80C0C57F821101842A2
:1089E800C1F3014105D0022913D1032A0BD1114645
:1089F80004E003290DD1032A05D102212846FFF7F7
:108A080041FE0134E4B2BAF1000F02D01146284603
:108A1800D04708F10108B8F1040F92D154B14FF0D2
:108A2800A043019AD3F81035934203D00193029BD7
:108A3800039382E704B0BDE8F08700BF00610040FF
:108A480000600040206100407C61004098320020B6
:108A5800014B1B68184700BFF43200200D4B9842A9
:108A680037B50D4610D102A8002300F8013DFEF7E6
:108A78007FFE094B1C7914B901221D601A719DF8FB
:108A88000700FEF799FE14B9002003B030BD11208D
:108A9800FBE700BF00200040F432002000234350D1
:108AA80082B043580193019B02B070470A4610B543
:108AB8004FF48E71FFF7F2FF136A9168C95C136A6D
:108AC80001331362C0F81C1510BD024608B54FF4F7
:108AD80092710068FFF7E2FF4FF484711068FFF7A6
:108AE800DDFF136801221A6008BD8B690A4610B5BC
:108AF8004FF4847123B9FFF7D1FFD0F8183510BDB2
:108B0800FFF7CCFF536AD168D0F81805C854536AE8
:108B18000133536210BD00001FB501238DF80030EA
:108B2800044B02900191684693E80600904705B00F
:108B38005DF804FBFC32002030B54D4AD2F804330E
:108B480013F4007F85B015464FD0D2F82431002B9E
:108B58004BD04FF492711046FFF7A0FF4FF401730A
:108B6800C2F80833434B93F8291009B90121516021
:108B78003F4902228DF80020D1F88024C1F88024D2
:108B880003929A690292DA68019200229A61DA6184
:108B9800684693E8060090473548D0F81C315BB129
:108BA80034490A6A4B699A420A464CD291F82830ED
:108BB800002B48D1FFF77AFF2D4AD2F8443193B100
:108BC8004FF4A2711046FFF769FF2A4B93F829105A
:108BD80009B1012111609A692AB100229A61586A83
:108BE800D968FFF799FF05B030BDD5F804335B07A6
:108BF800D2D5D5F80831002BCED01E4C1C482146C2
:108C0800FFF773FF636AA2699A422346C4D1E269F7
:108C180052B12369E168E3600023606AA261E361FD
:108C28006362FFF779FFB7E794F829200AB90122B0
:108C38006A600F4A4FF40171C2F8081300229A6162
:108C4800586AD968EDE74FF48E710948FFF726FF97
:108C580051690029B0D00023029191688DF8003045
:108C680001915361684692E80A009847A4E700BF5B
:108C780000200040FC3200202DE9F8435B4B0479CA
:108C880091462C2202FB0432064692F82A200D4611
:108C98009846002A40F0A58055490068FFF7DEFE97
:108CA8000746002840F09F8029683368481C0BD08D
:108CB8004FF0A04001228A40C0F8082501F5E07273
:108CC8004FF0030E40F822E06868421C1FBF00F511
:108CD800E0724FF0A04E4FF0000C4EF822C0AA6987
:108CE80095F814E0C3F824256A7DBEF1010F4EEA19
:108CF8000202C3F86C25C3F81405C3F80C151DD17E
:108D0800AA68511C1FBF02F5E0714FF0A0404FF058
:108D1800000E40F821E0E968481C0BD04FF0A04E47
:108D280001208840CEF8080501F5E0704FF0030CEB
:108D38004EF820C0C3F80815C3F810252C23634348
:108D480008EB0302C2F804902A6948F80320B9F135
:108D5800000F33D04FF48E7130682D7FFFF79EFEE1
:108D680030684FF4A271FFF799FE3268214BC2F8C0
:108D78000433120B53B2002BA8BF03F160404FEA33
:108D880053134FEA4511BABF1B4802F00F0500F50F
:108D980061404FEA8303B4BFC9B2C9B203F160436B
:108DA800B4BF415580F8001303F5614302F01F0278
:108DB800012101FA02F2C3F880211A603368042203
:108DC800C3F800252C2303FB048300229A61DA618F
:108DD80083F829205A61012283F82A203846BDE801
:108DE800F8830827FAE71127F8E700BFFC320020CC
:108DF800418B02008000020014ED00E02DE9F843E9
:108E0800234F06794FF02C0909FB067480466569E3
:108E1800002D37D16261A16025624FF48E71006820
:108E280084F82850FFF73AFED8F800000123836041
:108E38002146FFF73BFE6368A14633BBD8F80050D4
:108E4800226A63699A4212D3D8F80030D3F81C21F9
:108E5800002AFBD00122DA6000202C2303FB0676CF
:108E680000237361BDE8F88394F8283043B9D5F836
:108E78001C31002BF8D049462846FFF717FEDFE7DC
:108E88000F20EAE71120BDE8F8832846BDE8F883FB
:108E9800FC3200200379044A2C2101FB0323586982
:108EA800003018BF01207047FC3200202DE9F8433C
:108EB8003D4D07792C2303FB075306465C6824B114
:108EC80003684FF40170C3F808032C2303FB07530E
:108ED800986940B3D869002862D024B133684FF448
:108EE8000172C3F804231120BDE8F883002A44D195
:108EF800002C42D14146FFF7F8FDD9F82430D9F8C3
:108F080018209A422DD8224637E05A6045E0336847
:108F18004FF40172C3F804233FE00320BDE8F8834F
:108F28000F20BDE8F8839A61D9605862D8612C2473
:108F380004FB075393F829301BB910B93046FFF7E3
:108F4800C4FD04FB07535B68002BE0D14FF4A2710A
:108F58003068FFF7A3FD4FF02C0907FB045809FB05
:108F680007593068D0F82421D0F80831D0F84441A6
:108F7800002BBBD10CB9002AF3D02C2303FB0755D7
:108F88000023AB61002AC8D1002CC9D195F829105B
:108F9800336801220029B8D01A600020BDE8F883A0
:108FA8001961DA610120C2E7FC3200200023435036
:108FB80082B043580193019B02B070471FB501234B
:108FC8008DF80030054B8DF808000191684693E84C
:108FD8000600904705B05DF804FB00BF2833002069
:108FE8007FB5384AD2F82461002E49D010464FF494
:108FF8009271FFF7DBFF02238DF80030D2F880343E
:10900800C2F880340393D2F83C358DF808302E4BE3
:10901800DA68019200229A61DA61684693E80600EC
:109028009047284AD2F8443173B14FF4A2711046E0
:10903800FFF7BCFF244B996931B100219961D2F83F
:109048003C05D968FFF7BAFF1E4AD2F82031ABB108
:109058004FF490711046FFF7A9FF1B4B596969B18E
:10906800D2F84C158DF80810002299688DF8002068
:1090780001915A61684693E80600904704B070BDB4
:10908800D2F81031002BCCD04FF488711046FFF77E
:109098008DFF0D4BD2F83C0599698842C1D1DC6936
:1090A8006CB1D2F80052D96825F02005C2F80052F8
:1090B8001A699C61DA60DE61FFF780FFB1E79C61A5
:1090C800D968F9E700200040283300202DE9F8434B
:1090D8005F4B06799146242202FB0632044692F839
:1090E80020200D469846002A40F0AD805949006876
:1090F800FFF7B4FC0746002840F0A78029682368DA
:10910800481C0BD04FF0A04001228A40C0F8082527
:1091180001F5E0724FF0030E40F822E06868421C47
:109128001FBF00F5E0724FF0A04E4FF0000C4EF854
:1091380022C0AA6995F814E0C3F824256A7DBEF117
:10914800010F4EEA0202C3F86C25C3F80C15C3F8E8
:1091580014051DD1AA68511C1FBF02F5E0714FF01C
:10916800A0404FF0000E40F821E0E968481C0BD001
:109178004FF0A04E01208840CEF8080501F5E070B8
:109188004FF0030C4EF820C0C3F80815C3F810259B
:109198002423734308EB0302C2F804902A6948F8B1
:1091A8000320B9F1000F3DD04FF4887120682D7F5E
:1091B800FFF7FCFE4FF490712068FFF7F7FE4FF4BD
:1091C80092712068FFF7F2FE20684FF4A271FFF752
:1091D800EDFE2268204BC2F80433120B53B2002B69
:1091E800A8BF03F160404FEA53134FEA4511BABFD5
:1091F8001A4802F00F0500F561404FEA8303B4BF37
:10920800C9B2C9B203F16043B4BF415580F8001335
:1092180003F5614302F01F02012101FA02F2C3F8CB
:1092280080211A6023680822C3F80025242303FB41
:10923800068300229A61DA615A61012283F82020AC
:109248003846BDE8F8830827FAE71127F8E700BF92
:1092580028330020E98F02001003020014ED00E01B
:1092680001F06043B3F1005F2DE9F041074632D1C8
:109278001D4B0679242505FB063598466C696CBBA1
:109288006A61A96000684FF49071FFF78FFE4FF490
:10929800AC713868FFF78AFE3B686A69A968C3F849
:1092A8004415C3F8482501229A606A68CAB9D3F8F8
:1092B8002011D3F8582149B9002AF8D00F202423C7
:1092C80003FB068600237361BDE8F081002A14BF02
:1092D8000F200020F3E71020BDE8F0811120BDE841
:1092E800F0812046BDE8F081283300200379044A44
:1092F800242101FB03235869003018BF012070475F
:1093080028330020F8B501F06043B3F1005F04464C
:109318000F4628D10379314E242101FB03614868A7
:1093280020B121684FF40475C1F80853242101FBCA
:1093380003639D69CDB1D96900294AD020B123685A
:109348004FF40472C3F804231120F8BDD3F80022A7
:1093580042F02002C3F800221DE04FF40472C3F863
:1093680004230020F8BD1020F8BD9A61DF60DD619C
:109378004FF488712068FFF719FE4FF4A271206836
:10938800FFF714FE2368C3F83475C3F83825002D99
:10939800DCD101221A602279242101FB026149688B
:1093A8000029DAD1D3F81041D3F84411D3F82401B5
:1093B80014B909B90028F5D0242303FB0266002359
:1093C800984214BF032018469942B36118BF0F2072
:1093D800F8BD1F61DA610125CAE700BF2833002004
:1093E8000220FEF77ABF0000034B1B7813B1002060
:1093F800FEF75EBFFEF763BF4D330020F8B5784C2B
:10940800237805461BB100232370FFF7EDFF172DC6
:1094180000F28780DFE805F00C1717435464757F66
:10942800878C878C949898989898C2C6CDD4DEDE9D
:10943800FFF7DAFF6B48FEF779F86B4B002204461A
:109448001A702046F8BD0020FEF722FFF8B1002070
:10945800FEF72EFF022D0CBF4FF4E1614FF47A6145
:10946800614B1D704FF400404FF4FA740025E0FB87
:1094780001454FF47A7200232046294602F02CFA5F
:10948800002201465748BDE8F840FEF709B8FEF744
:1094980008FF022D0CBFC8214FF4C871E0E7002077
:1094A800FEF7F6FE40B10020FEF702FF4FF44871C8
:1094B80003224D4B1A70D5E7FEF7F3FEC821F7E7F4
:1094C8000020FEF7E5FE30B10020FEF7F1FE4FF474
:1094D8007A610422EDE7FEF7E4FE4FF4C871F8E77D
:1094E8000020FEF7D5FE48B10020FEF7E1FE3E4B16
:1094F80005221A7041F69A110022C3E7FEF7D1FE41
:10950800F5E70020FEF7E9FE374B06221A70002225
:1095180040F6CD41B6E70020FEF7C3FE0722324BE6
:109528001A7000248DE701202070FEF7D6FEEEE7C2
:1095380001202070FEF7D1FE00224FF48041A1E700
:10954800FEF7C4FE0C22EAE72848294EFDF7EEFF95
:10955800D5F1110504461CD0D8B9012D13D0C82364
:109568005D434FF4FA7000214FF400474FF47A72CC
:109578000023C7FB050102F0AFF9224601461B484C
:10958800FDF78EFF04460220FEF78BFE01233370A1
:1095980057E70220FEF78CFE0023F8E7FFF724FFC9
:1095A8001222BCE7FFF720FF0020FEF77AFE132205
:1095B800B5E7FFF719FF0120FEF773FE1422AEE7A7
:1095C800FFF712FF0020FEF76CFE0120FEF769FE90
:1095D8001522A4E7FEF77AFE034B1D70A1E700BF32
:1095E800B833002090330020C033002050330020CF
:1095F8004D3300202DE9F04107460C46FEF784FE66
:1096080038BB012C04D01BD3022C24D0BDE8F08138
:10961800124D6A782C7842B1114E124832464FF4F6
:109628000041FDF73DFF00B937700F4BAA781A705B
:109638007CB10E4B1B6863B12046BDE8F04118476A
:109648000848FDF773FF054B9C78074B1B78A3422E
:10965800EED0BDE8F081014B5C78E9E7B03300203B
:109668004C33002070330020C1330020BC3300206D
:1096780002210078FFF7BEBF044B1B68DB0703D548
:10968800034B1878FFF7BABE704700BFB433002009
:10969800C033002008B9FEF72EBE00207047000036
:1096A800044B1B6813F0010301D0FFF7A7BE18464F
:1096B800704700BFB433002038B5194B1860194BF8
:1096C80010F002040546196014D0174B17480E22F3
:1096D8001A70012140F26662FDF7B6FB044648B9EC
:1096E800FDF704FC044628B90146114A1148FDF764
:1096F800C5FE0446EB0711D50120FEF73FFE6CB905
:1097080021460D4A0D48FDF7B9FE044630B90C4A0A
:109718000C480121BDE83840FDF7B0BE204638BDF1
:10972800B4330020BC330020B0330020B0CB02009B
:1097380079960200BCCB020081960200C0CB0200E1
:10974800E9930200B8CB020048B9012A02D10129E5
:1097580007D00246012905D00AD3022905D00720DF
:1097680070470E22044B1A707047034B5A707047AB
:10977800014B9A70704700BFB033002008B5012232
:1097880002210020FFF7E0FF08B1072810D10722C7
:1097980002210120FFF7D8FF08B1072808D10021CE
:1097A8000A220846FFF7D0FF10B1072808BF00209B
:1097B80008BD00000388102B10B502D0112B1ED055
:1097C80010BD194C2168B1B901220846FFF7BCFF4A
:1097D80008B1072821D1072202210120FFF7B4FF91
:1097E80008B1072819D1042202210020FFF7ACFF95
:1097F80008B1072811D123680133236010BD0A4A34
:109808001368013B136073B9FFF7B8FF58B1074BF2
:109818001B6843B1BDE810401847044B1B68002B78
:10982800E9D09847E7E710BDC8330020C4330020CB
:109838000D4B10B518600C4629B10120FFF72AFF1F
:1098480040B102232370094B1B6853B9BDE810408F
:10985800FFF794BFFFF71EFF08B10B23F2E7207054
:10986800F1E7002010BD00BFC4330020C83300203A
:1098780076DF70477ADF70477CDF70477FDF70479D
:109888008FDF7047B1DF7047FDF746BB0388212B98
:1098980013B5044641D022D8112B2BD0132B46D018
:1098A800102B38D12A4B2B482B49C01AC00800046A
:1098B80040F00300FDF7C2F8284B012207201A7078
:1098C800FFF7EEFE08B1FDF727FB254BA1882548D9
:1098D800198001F02DFCF0B1FDF71EFB1BE0522BA7
:1098E8002DD0562B01D03B2B15D11321A088FFF783
:1098F800BFFFF0E7164B17481B49C01AC008000401
:1099080040F00300FDF79AF8144B00221A70144B2C
:109918004FF6FF721A8002B010BD002301A980889B
:109928008DF804308DF80530FFF7AAFFD3E70C480F
:1099380000231A4685210088FFF7A0FFCBE70848D7
:1099480000231A4619460088FFF79CFFC3E700BFAB
:109958005CC4020084C40200DCCB02002037002073
:10996800BE2A00203C370020E6CB02000D4B4A8877
:109978001B889A4214D10A8840F677239A420FD15D
:109988008B88094A09480A49033B9BB21380094A54
:10999800801AC00800041A4640F00300FDF75CB8BE
:1099A800704700BFBE2A0020BC2A002084C40200E1
:1099B80026CC02005CC4020008B503784BB9054BFD
:1099C8003B211888FFF754FF18B1BDE80840FDF7A0
:1099D800A3BA08BDBE2A00200E4B1B7873B50446F7
:1099E800B3B10D4D0D4E204602F038F92B88ADF875
:1099F80006000DF106022146304601F011FD082847
:109A080006D01328EFD0052802D008B1FDF784FA54
:109A180002B070BD20370020BE2A0020C02A0020D6
:109A280070B5304B304C3149E41AE408240444F052
:109A380003040546024690B02046FDF703F8072DBB
:109A48000FD00E2D17D0042D09D1294B13211888BA
:109A5800FFF70EFF30F0080301D0FDF75DFA10B0F4
:109A680070BD234B1A884FF6FF739A42F7D12148ED
:109A780000F009FFEEE7204E204D33782868ABB997
:109A8800FEF772FCFEF769FC2A681D490132204680
:109A9800FCF7D8FF2A681A490132684602F038F8FC
:109AA8006846FFF799FF01233370D8E7FEF75CFC9F
:109AB800FEF756FC2A68134901322046FCF7C2FF1C
:109AC8002A6810490132684602F022F86846FFF712
:109AD80083FF2A6801320023402A337098BF134657
:109AE8002B60BCE75CC4020084C40200F3CB020014
:109AF800BE2A0020C8340020C5340020C03400200D
:109B080006CC020015CC02000378012BF7B533D040
:109B180003D3022B30D003B0F0BD194C194D207877
:109B28002844FDF7E7FD23780133DBB21D44237099
:109B380015F8012C0A2A05D00D2A03D0124A1288DA
:109B48009A42E8D8012B14D9104D0E4E104F2378A5
:109B580002AA314622F8023D38462B8801F060FC03
:109B6800082806D01328F2D0052802D008B1FDF73E
:109B7800D3F900232370CEE74068FDF7CDF9CAE793
:109B8800C4340020CC330020BC2A0020BE2A002088
:109B9800C02A0020032808B507D10220FFF780FD5E
:109BA80018B1BDE80840FDF7B7B908BD2DE9F04187
:109BB8000578064645BB154B154CDFF85880E41A66
:109BC800E408240444F00104B28A95420AD33369B4
:109BD800134413F8013C0D2B16D10A20FDF7A0FD04
:109BE8001128F9E73369585DFDF79AFD074648B132
:109BF8001128F7D0024641462046FCF723FF384695
:109C0800FDF78AF90135DFE7BDE8F0815CC40200A1
:109C180084C4020089CC0200FDF77EB908B5084962
:109C2800084801F065F908B1FDF776F9F72105480C
:109C380001F072F918B1BDE80840FDF76DB908BD2B
:109C4800759902002437002000B57A4D0FCDB1B0C8
:109C580005AC0FC495E80300774B784A01934FF49D
:109C6800807384E80300029303920493744A0723E1
:109C780001A905A8FDF7E6FC08B1FDF74DF94FF479
:109C880000410020FCF712FD08B1FDF745F9FCF78B
:109C980043FCFDF7C1FB08B1FDF73EF96949072010
:109CA800FFF70AFD08B1FDF737F905A90020FFF70E
:109CB800BFFD08B1FDF730F9FEF7CCF808B1FDF7A4
:109CC8002BF901F02DFC08B1FDF726F9002305A9B1
:109CD8000120059301F0B0FC08B1FDF71DF905A8B6
:109CE80001F07CFD08B1FDF717F99DF804305648DE
:109CF800012262F3030362F307138DF8043001F0C5
:109D0800ADFF514982B201A8FFF7B6FD08B1FDF7D2
:109D180003F90822002105A801F04AFF1023ADF835
:109D280014303C23ADF816300023ADF8183005A8E0
:109D38004FF4C873ADF81A30FFF79CFD08B1FDF772
:109D4800EBF8FFF76BFF414B4148059305A901F07C
:109D5800DDF908B1FDF7E0F8042200210DEB02005F
:109D680001F026FF3B4B3C48019301A901F0E0FAC2
:109D780008B1FDF7D1F8AC22002105A801F018FFC1
:109D880002238DF8143000238DF8163005238DF842
:109D980017300123ADF860308DF8903040232793B9
:109DA80044F250632D4A289305A92D4B2D4819924A
:109DB8002E9300F0A4FB08B1FDF7AEF80121294865
:109DC80000F09AFB1C22002105A801F0F1FE0023F7
:109DD8004FF4203205930692ADF822304FF47022EA
:109DE8008DF82430204B07920A9303221F4B8DF8DD
:109DF800202005A80B9300F065FE08B1FDF78CF84C
:109E08001B4801F065FE1B4B1B481C49C01AC008C3
:109E1800000440F00300FCF711FE0321114800F094
:109E2800EDFB08B1FDF778F8FCF79AFCFEF728F887
:109E3800FAE700BFC4CB02004837002048380020AA
:109E4800119B0200299A020042CC0200219C0200C8
:109E58003C370020B59B0200C02A0020B82A002009
:109E68009D9B0200C8340020C1990200919802000D
:109E78004ECC02005CC4020084C4020060CC020024
:109E88000369C1688B429DBF8268D21802F1FF3214
:109E980003F1FF3394BF501A581A70472DE9F04167
:109EA800C7688668F61B9642044688461546406889
:109EB80006D9384401F052FE3D44E560BDE8F08122
:109EC80032463844AD1B01F049FE2A4608EB06012C
:109ED800606801F043FEF0E72DE9F843C5680646DF
:109EE800894617464FF000083469B3687068A54280
:109EF80028BFE418013C621B5C1BBC4228BF3C46DF
:109F0800944228BF144649462844224601F026FEBA
:109F1800B36825449D4208BF00253F1BA044A144C7
:109F2800F560E1D14046BDE8F883000010B5114C5A
:109F3800114AA261022323616361104BE361A264A9
:109F48004FF400730E4A2362E26400231022A362D6
:109F58006362E362A3656365E36522650949E01D01
:109F680001F05AFE0849204601F056FE2023A3714D
:109F780010BD00BF48390020B4CC0200D039002001
:109F8800C0390020BDCC0200C1CC0200F8B5184C85
:109F9800182300FB033503FB00402544C46A012C49
:109FA8000F46164611D003D3022C1BD000240AE01A
:109FB8002846FFF765FFB04205D3324639462846A2
:109FC800FFF76CFF34462046F8BD2846FFF758FFD8
:109FD8008642344628BF0446224639462846FFF7BB
:109FE8005DFFF0E72846BDE8F840FFF775BF00BF02
:109FF80048390020FFF79ABF6DDF704779DF704757
:10A008007DDF704764DF70472DE9F74F0C9CBDF882
:10A0180034B02788002580468A4691462E46B8F8EF
:10A02800002096420BDB35B12288013AD21B92B24E
:10A03800FF2A39D8DA55002003B0BDE8F08FD8F8E8
:10A04800042052F82600019000220DF1030101A816
:10A05800FFF7D8FF0028EFD19DF803204A4521D10A
:10A068002288002D14BF0020022002EB09010144C0
:10A07800594519DC3DB9013292B2228003F802A099
:10A0880022880132228022880DF103011A4401A896
:10A09800FFF7B8FF0028CFD121889DF803200A4494
:10A0A800228001250136BAE70C20C5E72DE9F341E6
:10A0B800089CBDF8245017468DE830000222064659
:10A0C800FFF7A2FF48B9102239463046099508948F
:10A0D80002B0BDE8F041FFF797BF02B0BDE8F081DC
:10A0E8002DE9F04F00231788138090F82D3085B0A4
:10A0F80006460D46144643B3082F4ED902A8FFF76B
:10A108007BFF002840F0208113880822CA54238846
:10A1180001339BB21B222380CA542088013080B2AD
:10A12800208006220DF10901284401F017FD23883B
:10A138009DF8082006339BB212F0FE0218BF0122D8
:10A148002380EA54238801332380B378FBB1238822
:10A158000433BB4221D802A8FFF750FF002840F083
:10A16800F38023880322EA54238801339BB21922FF
:10A178002380EA542388BDF8082001339BB2E918EC
:10A188002380EA54120A4A70238802332380F27823
:10A19800AAB12388D91CB94201D90C20D4E00221E4
:10A1A800E954238801339BB201212380E954238891
:10A1B8000B449BB22380EA5423880B4423807268A3
:10A1C800AAB12388D91CB942E7D8022192F9002004
:10A1D800E954238801339BB20A212380E954238858
:10A1E80001339BB22380EA542388013323803389C7
:10A1F800002B40F09D80338A5BB18DE890002B46A0
:10A208000722032106F11000FFF750FF002840F055
:10A218009B80338B5BB18DE890002B46152214216F
:10A2280006F11800FFF742FF002840F08D80326ADF
:10A23800002A40F08C80D6F82480B8F1000F2ED088
:10A24800B8F804302188981C8A1C0244BA42A4D861
:10A25800FE28A2D803336B54238801339BB2FF2214
:10A268002380EA54238801339BB22380B8F8002066
:10A27800EA54E918120A4A702088023080B2208015
:10A28800B8F804205AB1D8F80810002969D0284431
:10A2980001F064FC2388B8F804201344238096F85E
:10A2A8002C30002B40F09880307800284CD0338830
:10A2B800012B56D021888A1CBA423FF66EAF01287E
:10A2C80005D1737802330B449F42FFF466AF023F17
:10A2D8007F1A04A9BFB221F8087DA818FFF790FEDD
:10A2E80090BB3378BDF80820022B02D071789142D8
:10A2F80002D3BA4240F2B680012B40F0B0807378A6
:10A308009F42C0F0AC80ADF808300821BDF8083095
:10A31800FE2B3FF642AF22880133AB54228801322C
:10A3280092B22280A95422881344238000200BE093
:10A338008DE890002B460622022106F10800FFF75F
:10A34800B5FE00283FF457AF05B0BDE8F08FB4F86C
:10A3580000E00EF10603BB423FF61FAF1188052946
:10A3680001D80720F0E76FF4486C01EB0C039BB2AF
:10A378004FF27D3C6345F4D95388052BF1D96FF42E
:10A388004860181880B26045EBD94FF6FF708142DB
:10A3980003D0834201D09942E3D8052305F80E3053
:10A3A800238801339BB212212380E9542388013387
:10A3B8009BB223801188E954E818090A4170238860
:10A3C80002339BB223805288EA54E918120A4A7071
:10A3D8002388023323802EE7B36A002BC1D04FF0C5
:10A3E80000094FF00C0A4FF0160B96F82C305FFA64
:10A3F80089F293427FF658AFB16A0AFB02F201EB89
:10A408000208B8F80430981CFE283FF6C6AE20882B
:10A4180003332B54238801339BB2238005F803B000
:10A42800238801339BB223808A5AEA54E918120A16
:10A438004A702088023080B22080B8F804205AB1CF
:10A44800D8F8081000298CD0284401F087FB23880D
:10A45800B8F804201344238009F10109C5E7ADF8D1
:10A46800087052E7092151E770B558B14AB116880A
:10A478000024B44203D305196D789D4208D08C425C
:10A4880001D3002070BD055D01352C44A4B2F0E76E
:10A498008C42F6D2A31C1380005D013880B270BDD7
:10A4A80037B502AC002324F8023D13462246054680
:10A4B800FFF7DAFF10B1BDF80600284403B030BD3D
:10A4C80072DF704773DF704774DF704738B5012259
:10A4D80004460D46B0F83812D0F83402FFF7E0FF12
:10A4E80000B1057004F13C0204F50D7104F154004B
:10A4F800BDE83840FFF7E4BF80F830107047F8B582
:10A5080004460F46A1B198B191F87A3013B191F889
:10A5180098303BB9D7F8A030042B03D0D7F89C303B
:10A52800042B07D10720F8BD1F2335E01F2346E081
:10A538000E20F8BD07F178060FCE4FF0000E251D4E
:10A5480084F802E00FC50FCE0FC596E8070085E82E
:10A55800070084F830E0D7F8A4306363D7F8A83050
:10A56800A3634FF6FF7504F50D73C4F84432A4F8DD
:10A5780048520722714604F24A2001F019FB237859
:10A588000BB984F8545094F8243004F15501C4F8F8
:10A598003412002BC8D0EE23A4F8383204F50E721A
:10A5A8003846FFF79DFD40BB94F8243004F2431170
:10A5B80007F13C00C4F83C12002BB7D0EE23A4F8F6
:10A5C800403204F51072FFF78BFDB0B9A269A4F808
:10A5D800482001236269206484F8500062640146BF
:10A5E80084F8513084F83C3004F13C0204F1540002
:10A5F800FFF766FF08B92370F8BDF8BDF8B507780E
:10A6080004460D46002F00F0038100F24A26A1708F
:10A6180007220021304601F0CBFAE38813B1A37872
:10A62800012B04D0E3794BB1A378022B06D1636BDD
:10A638009BB1012284F8512208209847324604F53C
:10A64800147112F8013F5BB98A42FAD16A1E032AD3
:10A6580050D8DFE802F0070D111484F85132EDE705
:10A668003B46F3E7A2791AB194F8242002B95BB902
:10A67800E2790AB1002B3FD1237A002B3ED1637ACD
:10A68800002B0CBF00250425636BA570002B37D069
:10A69800033D012D34D8627992B394F852227ABBE3
:10A6A80084F85422012284F853220720984704F1A1
:10A6B8003C0518220021284601F07AFAE26A0123B3
:10A6C800511E994284F83C3000F2A48084F851204D
:10A6D80094F824201AB1BFB1A36A84F85230A17843
:10A6E800002384F8503004291DD8DFE801F0790FE1
:10A6F80024375B000025C7E70225C5E70325C3E724
:10A70800002384F85332D2E70123E6E7C4F8443241
:10A7180063640223012284F83C30802384F83120CA
:10A728002664A4F84830A378002B5CD1636B002B17
:10A738006AD10020F8BD022384F8313062B10723C2
:10A7480084F83C302369A4F848300023C4F8443224
:10A75800E36826646364E6E70323F1E763696364F7
:10A76800A369A4F8483012B1062384F83C30637911
:10A77800B3B194F852329BB994F8543283B102239E
:10A7880084F8503004212046FFF7A0FE0028CAD1E3
:10A79800052384F8313004F50D73C4F84432C2E758
:10A7A8000323F6E7E3696364236AA4F8483012B127
:10A7B800062384F83C30637983B194F852326BB93C
:10A7C80094F8543253B1022384F8503004212046BF
:10A7D800FFF77CFE0028A6D10623DAE70423D8E792
:10A7E80084F831309FE72A46D4F8441204F1540023
:10A7F800FFF766FE90B994F8301094F85400FFF70C
:10A8080061FE002892D0F8BD94F83100984790E78F
:10A818000820F8BD84F85130002759E7F8BD0388AF
:10A82800112B10B50C460AD0262B1CD0102B28D182
:10A83800C37B012B25D18388A1F8483210BD0022A3
:10A84800838881F85222B1F848229A4219D10B79AB
:10A85800BBB901212046FFF7D1FE90B1A36B83B1AC
:10A86800BDE810401847037A013B012B09D88978C5
:10A878000523013191FBF3F303EB8303C91AC9B232
:10A88800E8E710BD704738B5044690F85400FFF764
:10A898001BFE012384F85232002384F8543284F8D2
:10A8A800503006212046FFF711FE054638B9A17839
:10A8B8002046FFF7A3FE10B1A36B03B198472846C3
:10A8C80038BD75DF704776DF70477ADF70477BDF0A
:10A8D80070470000034B1A8882420CBF18460020BC
:10A8E800704700BFEC3B0020024B9B6903B118473F
:10A8F800704700BFD03B002037B585B22846FFF728
:10A90800E9FF034670B1164C017A227B91420BD2C3
:10A9180000F10A012846FFF7D4FFE8B1112801D059
:10A92800FFF7E2FF03B030BD237C0022027243B17F
:10A938003B212846FFF7C7FF30F0080301D0FFF797
:10A94800D3FF6369002BEDD000228DF80420ADF809
:10A95800065001A89847E5E71A7A01321A72E1E72A
:10A96800D03B002013B50B46497A0F4C024669B913
:10A97800A06861681C7A002C18BF01465868FCF76B
:10A988008FFD08B1FFF7B0FF02B010BD00211972AA
:10A998006369002BF8D00121ADF806008DF804108A
:10A9A80001A89847F0E700BFD03B00208388B3F5A3
:10A9B800FA7F28BF6FF4F97230B528BF9C18058854
:10A9C8004A8838BF002495420CD84088904209D361
:10A9D8008A88A24206D303F2F310904234BF0020C3
:10A9E800012030BD002030BD0388112B70B5014611
:10A9F8002ED002D8102B05D070BD122B51D0502B61
:10AA080035D070BDC37B012B4AD14FF6FF70FFF7DD
:10AA180061FF054620B90420BDE87040FFF764BF18
:10AA2800264A8E880680002303721368C5F80A3008
:10AA38000A30536843601031FFF7B8FF204B687243
:10AA4800DB896BBB29463046BDE87040FFF78ABFFB
:10AA58008088FFF73FFF044610B34068FCF766FDA7
:10AA680008B1FFF741FF4FF6FF73238070BD144B09
:10AA7800C288DB899A4213D1038A022B10D18688B7
:10AA88003046FFF727FF054650B101F1120000F0EC
:10AA98003AF90028D6D16868FCF748FD0028BBD1F0
:10AAA80070BD86883046FFF715FF05460028F7D0A9
:10AAB80008310A30FFF77AFF6872C3E7003C0020CC
:10AAC800D03B0020F8B5064650B305460FCD154FCC
:10AAD8003C460FC495E8070084E807003068124B2D
:10AAE8003B60B8B1FFF7F1FED8B931680A681A605F
:10AAF8004A685A600D480E4A4FF6FF7303800D4BA3
:10AB080040F8043F0021FCF7B9FC002814BF0320DB
:10AB18000020F8BD1846FFF7DAFE0028EAD0F8BD95
:10AB28000E20F8BDD03B0020003C0020EC3B00206C
:10AB380001A90200083C002073B50191019C06465A
:10AB48006CB100242546294601A8FCF75EFE18B121
:10AB580006EB440301349D800135142DF3D13046B2
:10AB6800346002B070BD00002DE9F0470388848886
:10AB7800112B8CB0064638D01A2B3BD0102B24D181
:10AB8800274DAB680CA8DB4340F8303D6968FCF7FB
:10AB98006BFE009901A8FFF7CFFF0DF106094FF0F2
:10ABA8000008019B984513D3132C35D821461D481E
:10ABB800FCF718FE21461C48FCF714FEF37B012B1A
:10ABC80003D01A482146FCF70DFE0CB0BDE8F0870B
:10ABD80039F802AF002704375146E819FCF70BFE95
:10ABE800742FF8D108F10108DBE70E482146FCF77D
:10ABF80002FEEAE7057A0E482D09012D214606DDF9
:10AC0800FCF7F0FD022D21460A48F0D0DBE7FCF7FF
:10AC1800F2FD21460748EAE70420FCF77DF9D4E76E
:10AC2800283C0020303C00202C3C0020343C0020F4
:10AC3800383C00203C3C00201328014602D802483A
:10AC4800FCF7E3BD002070472C3C002010B50446FB
:10AC5800FFF7F2FF002814BF2046142010BD70B57E
:10AC6800054616460AB90E2070BD00231360002859
:10AC7800F9D00368002BF6D0C38813F003040FD172
:10AC88000846FFF7E3FFC0B214280BD02B798342A4
:10AC98000AD9EB882A6800FB03203060204670BD83
:10ACA800072070BD052070BD042070BDAADF704765
:10ACB8000B7803F0F0036FF3071301380B700428C7
:10ACC80011D8DFE800F0030811171D000B780122E6
:10ACD80062F3030304E00B78012262F30303022208
:10ACE80062F307130B7070470B78012262F30303BA
:10ACF8000322F5E70B78022262F303030122EFE750
:10AD08000B780222E4E7007800F001007047F0B504
:10AD18008B7891B005460C46164603B901230322E9
:10AD28008DF80E3000212388ADF80C30684600F00D
:10AD38003FFF6946607CFFF7BBFF0DF10101A07C76
:10AD4800FFF7B6FF9DF80230E27B62F3C303227C73
:10AD580062F30413227B62F30003227D002A14BFEE
:10AD68000222012262F3420300211C2209A88DF865
:10AD7800023000F01DFF637B13F0300F1AD002AFD2
:10AD880003220021384600F013FF0DF10901E07C91
:10AD9800FFF78EFF9DF808300E97012262F3030338
:10ADA80062F307138DF808309DF80A3062F3420306
:10ADB8008DF80A30637B8DF824301422A37B8DF83C
:10ADC8002530002104A800F0F3FE03AB0493A38808
:10ADD800ADF81C30A368CDF814D01BB1E288ADF8EB
:10ADE80018200893A369002B2ED001AF032200215D
:10ADF800384600F0DDFEA3691A88ADF82C205A8881
:10AE0800187BADF82E2039465A680A920D97FFF73D
:10AE18004FFFA3690DF10501587BFFF749FFA269B0
:10AE28009DF80630917A61F3C303D17A61F3041374
:10AE3800117A927B002A61F3000314BF02220122D7
:10AE480062F342038DF80630E36903B10C9333468D
:10AE580004AA09A92846FFF729FF11B0F0BD90DF21
:10AE68007047A5DF7047B5DF704700007FB5002346
:10AE7800ADF80810ADF80A106A4602A90646ADF802
:10AE88000C30ADF80E300093ADF80430FFF7E7FF53
:10AE98000546F8B1114B124CE41AE408FDF754F8D2
:10AEA800240444F00104034632460E492046FBF7C9
:10AEB800D3FDBDF80020BDF8023002B91BB10A4924
:10AEC8002046FBF7C9FDBDF804201AB10749204602
:10AED800FBF7B8FD284604B070BD00BF5CC4020093
:10AEE8009CC40200C8CC020012CD020051CD020061
:10AEF80080B1F72303804380FB22C38017230271AC
:10AF08000381027300231B2201618372C37242739F
:10AF1800184670470E20704730B1A1F11703E02B97
:10AF280004D80180002070470E2070470720704722
:10AF380013B5034680880C46A0B91A88232A00F066
:10AF4800AF8011D8102A24D0112A53D0A37A4BB13C
:10AF5800E1880020FFF785FF002840F0A780012343
:10AF6800A072E37202B010BD3A2A4ED0552A68D0BA
:10AF7800242AEBD11A7A0B694A73002BE6D04DF6D6
:10AF88007A210090ADF80400ADF800108DF8042087
:10AF980082E0DB7B0A790A73012B13D0022B14D0D1
:10AFA800E18823898B4205D20020FFF75AFF70B948
:10AFB8000123E372217B637B8B42C7D20020FFF71A
:10AFC80055FFC3E70B88E380EAE74B88FBE71128C6
:10AFD80002D10123A372EDE7FCF7B6FF3C4A3D4BD3
:10AFE8003D499B1ADB081B04024643F00100FBF7AE
:10AFF80029FDDFE7F723CB8017230B81FB230B7396
:10B008001B238872C8724B73A0E75B89CA88934276
:10B0180028BF1346172B0A6938BF17230B8162B163
:10B02800C97A51B140F67721ADF80010ADF80200A9
:10B03800ADF804306946204690470023E372A372B6
:10B0480084E7DB88C988A072172B38BF17238B4287
:10B0580028BF0B462381FFF706FF60B1FCF774FF9A
:10B068001B4A1C4B1D499B1ADB081B04024643F074
:10B078000100FBF7E7FCE27A002A7FF467AF236957
:10B08800002B3FF463AF40F67721ADF80220228908
:10B09800ADF80010ADF8042069462046984755E7FA
:10B0A800197A237B994228BF194688E711283FF46B
:10B0B80059AFFCF749FF064A064B07499B1ADB08BC
:10B0C8001B04024643F00100FBF7BCFC4AE700BF43
:10B0D8005CC402009CC40200A7CD0200D8CD0200C7
:10B0E800B0DF704766DF7047034610B5002140881F
:10B0F800FFF7F8FF024608B91A7210BD112801D1EE
:10B108000122F9E75B68BDE81040184760B159B102
:10B118000378DE2B0AD00B684360DE2303704FF6FA
:10B12800FF734380002070470E2070470820704747
:10B1380028B10378DE2B04D14180002070470E200F
:10B14800704708207047F0B5054685B00C46F1B148
:10B15800E8B10B78DE2B1AD182884B889A4204D149
:10B168000B7A13B10846FFF7BFFF2B88112B32D09B
:10B17800512B0ED0012B0AD12B7A012B07D1A9888C
:10B188006288914203D123722046FFF7ADFF05B0D4
:10B19800F0BDAE886388B342F9D1AF79022FF6D1FA
:10B1A800AD7B2B1F022BF2D800211022684600F03D
:10B1B800FFFC052D14BF4FF4C073002369463046C9
:10B1C8008DF80070ADF80430FFF78AFF0028DED054
:10B1D80063689847DBE76388AA889A4204BF4FF6FA
:10B1E800FF736380D3E7A8DF7047ADDF7047AEDF3A
:10B1F800704762DF704770B505468AB00C46002973
:10B2080066D0002864D00388502B3BD0572B76D0CB
:10B21800102B5DD10AAA0026818842F8246D606946
:10B22800FFF71DFD082231460DEB020000F0C0FCBF
:10B23800022302AA218AA888CDF80CD0ADF80830DC
:10B24800ADF80A60FFF7D1FF002841D1A369002BB0
:10B258003ED00398FFF757FD002839D0019B0BB16A
:10B2680001221A701822002104A800F0A1FC022370
:10B278008DF81030AB88ADF81830019B0594079312
:10B28800A36923E08188606902AAFFF7E8FC182215
:10B29800002104A800F08CFCAB88ADF81830218997
:10B2A800EB88029A05949942079218D12E8A022EA9
:10B2B80015D16AB105F11200FFF725FD029B48B1CF
:10B2C80001221A708DF81060A3690BB104A8984781
:10B2D8000AB070BD187003238DF81030F4E7A28906
:10B2E8009A42F5D1A369002BF2D000228DF81020E4
:10B2F80005F1120208922A8AADF82420E6E781882F
:10B30800606902AAFFF7ABFC01460028E0D1029B66
:10B318001B78002BDCD0182204A800F049FC01237C
:10B328008DF81030AB88ADF818300594029BA6E76D
:10B33800F0B53A4B8FB002AA05460E4603F1100E3F
:10B34800174618685968144603C4083373452246DB
:10B35800F7D1002D5FD0002E5DD03368AB61294650
:10B368003846FFF746FF002853D12A460EA9012484
:10B3780012F8023B21F8344D20468DF80630FFF7CD
:10B3880032FF002845D10146202206A800F010FC13
:10B398002A460223ADF8183012F80C3B8DF81A3003
:10B3A8009DF825306888ADF81E40F42643F00C035C
:10B3B80006A9ADF81C608DF824408DF825308DF86D
:10B3C80029408DF82A40FFF7A2FC10BB0146202235
:10B3D80006A800F0EDFB2A460323ADF8183012F852
:10B3E800043B8DF81A309DF825306888ADF81C604C
:10B3F80043F0100306A9ADF81E408DF824408DF8DF
:10B4080025308DF829408DF82A408DF82B40FFF71C
:10B418007EFC0FB0F0BD0E20FBE700BF14CE02008B
:10B42800F0B50F4687B016461C46054618B301AA64
:10B4380019464069FFF713FCD8B94FF6FF739C42D1
:10B448001BD0019BCBB11B78CBB13388F42B18D818
:10B458000146102202A800F0ABFBAB88ADF808301B
:10B4680002A901232046059704968DF80A30FFF7B4
:10B47800BEFE07B0F0BD0E20FBE70520F9E7082067
:10B48800F7E70720F5E710DF7047000013B504461B
:10B4980009496846FCF723FD019808B902B010BDB8
:10B4A800036841682046984718B16846FCF721FDB3
:10B4B800F2E71120F2E700BF30CE020013B50446D0
:10B4C80007496846FCF70BFD019B0BB902B010BD9C
:10B4D80020461A68596890476846FCF70AFDF3E762
:10B4E80048CE02000C4991F816335A09EC2313414F
:10B4F800DB0708D442F20200FBF70EBD1A6842F4DB
:10B5080080021A607047054B9A68002AF6D14FF4FA
:10B5180080030B60704700BF00E100E05432002058
:10B52800F7B5184F3C785CBB174E0125204635709F
:10B53800FFF7ACFF112820D02046FFF7BFFF134BC1
:10B548001868019002A800F8054DFCF711F9104998
:10B5580001A8FFF798FF0446B0FA80F04009387058
:10B568009DF80300FCF728F93CB90A4B34701C70AD
:10B57800FFF7B8FF2846FFF7A1FF204603B0F0BD4C
:10B588000824FAE7A13C0020A03C00202CCE0200B1
:10B598003D6F0200A23C0020014B1878704700BFA5
:10B5A800A13C002007B508496846FCF798FC019BB8
:10B5B80013B903B05DF804FB58681A6890476846E9
:10B5C800FCF797FCF3E700BF3CCE0200FFF7EABFA9
:10B5D80060DF704769DF704761DF704730B5114D34
:10B5E800ADF5017D4FF4FA740DF1020103A8ADF831
:10B5F8000240FFF7F1FF70B9294601A8FCF76FFC7C
:10B60800029B002BF0D003A81A685968904701A83C
:10B61800FCF76FFCF4E7052801D0FBF77DFC0DF57E
:10B62800017D30BDCCD00200024B1B780BB1FFF777
:10B63800D5BF7047A33C002030B5054685B00C4601
:10B64800002900F0B5805C4B0B600C22002101A89A
:10B6580000F0AEFA01238DF8063022688DF8045008
:10B66800062301A92020ADF80830FFF7B3FF60B129
:10B67800FCF76AFC514A524B52499B1ADB081B04DF
:10B68800024643F00100FBF7DDF90C22002101A876
:10B6980000F08EFA01238DF805302268002301A9F5
:10B6A80040208DF806308DF80730FFF793FF60B122
:10B6B800FCF74AFC414A424B43499B1ADB081B04EE
:10B6C800024643F00100FBF7BDF90C22002101A856
:10B6D80000F06EFAF72322688DF8045001A92320A0
:10B6E800ADF80630FFF776FF60B1FCF72DFC334A62
:10B6F800334B36499B1ADB081B04024643F0010012
:10B70800FBF7A0F90C22002101A800F051FA012052
:10B7180022688DF8040001A9FFF75CFF60B1FCF70F
:10B7280013FC264A264B2A499B1ADB081B040246AF
:10B7380043F00100FBF786F90C22002101A800F074
:10B7480037FA4FF4B0632268019301A9A120FFF7EB
:10B7580041FF60B1FCF7F8FB184A194B1D499B1AC9
:10B76800DB081B04024643F00100FBF76BF90C22CF
:10B77800002101A800F01CFA9DF8043022686FF33C
:10B78800000301A9A0208DF80430FFF723FF88B13A
:10B79800FCF7DAFB094A0A4B0F499B1ADB081B0422
:10B7A800024643F00100FBF74DF9002005B030BD1B
:10B7B8000E20FBE7FAE700BF982A00205CC40200CD
:10B7C800ACC402005CCE0200A2CE0200EECE0200A3
:10B7D80035CF020081CF0200D2CF0200F8B506466D
:10B7E8000768FFF7F5FE33689F4205461DD2194BDF
:10B7F800194C1A49E41AE408240444F002042046C7
:10B80800FBF71CF9336816493A462046FBF724F93A
:10B818004FF080533268D3F80C3112499B0203F180
:10B8280000539A1A2046FBF70DF925B90E4B012251
:10B838001A702846F8BD2846FCF786FB054A064BD1
:10B848000A499B1ADB081B04024643F00100FBF778
:10B85800F9F8EEE75CC40200ACC4020025D002008F
:10B8680054D0020085D00200A33C0020AFD00200D3
:10B878004BDF70471FB50D4C01A8FFF7F9FF70B9F2
:10B88800214602A8FCF72BFB039B002BF4D0019860
:10B898001A685968904702A8FCF72BFBF4E70528BB
:10B8A80001D0FBF739FB04B010BD00BFE4D00200A3
:10B8B800B2F120030AD5C2F1200301FA02F120FAFD
:10B8C80003F341EA030100FA02F0704700FA03F1BA
:10B8D8004FF00000704700BF53EA020C61D02DE919
:10B8E800F04BB3FA83F51E0007BFB2FA82F502FAED
:10B8F80005F403FA05F41646C5F120051EBF22FA21
:10B9080005F73C43203556EA044C4FEA144418BF67
:10B918000134A3464FF00009C846904271EB030C6E
:10B9280039D3094207BFB0FA80F700FA07F6B1FA2F
:10B9380081F701FA07F6C7F120071EBF20FA07FCB6
:10B9480046EA0C062037B6FBFBFC7F1B103F07F0CE
:10B958001F04C4F120060CFA04F42CFA06F644BFBE
:10B9680034460026202FA4BF2646002454EA060C9D
:10B9780008BF012418EB040849EB0609A4FB027C64
:10B98800C01B06FB02CC04FB03CC71EB0C019042FC
:10B9980071EB030CC5D20B46024649464046BDE84A
:10B9A800F08BB2FBF3F200BF7F2805D8034B185C7D
:10B9B800034B5B5C1840704700207047FCD00200C6
:10B9C8007CD10200A0F16103192B98BF2038704781
:10B9D800A0F14103192B98BF203070477F2805D864
:10B9E800034B185C034B5B5C1840704700207047A2
:10B9F800FCD002007CD10200A0F16103192B98BF92
:10BA080020387047A0F14103192B98BF20307047A8
:10BA18007F299ABF017001206FF02E0070475AB13C
:10BA28000A787F2A0AD800B102600021196059609B
:10BA3800501A18BF01207047002070476FF02E0081
:10BA4800704738B504460846A16841B12368626862
:10BA58005D1C954208BF0020934208D2C854E36891
:10BA68002BB121686268914201D221469847236828
:10BA78000133236038BD70B54C1E09D41646C5B2D3
:10BA880029463046FFF7DDFF013CB4F1FF3FF7D10F
:10BA980070BD10F0100F09D108B500F4007000282F
:10BAA80014BF30202020FFF7E6FF08BD70470000D4
:10BAB80008B5034B5B689B681B68984708BD00BFC7
:10BAC800E42A002008B50921FFF7F2FF08BD0000AD
